:100000000C9454000C947C000C947C000C947C00A8
:100010000C947C000C947C000C947C000C947C0070
:100020000C947C000C947C000C947C000C947C0060
:100030000C947C000C947C000C947C000C947C0050
:100040000C9453020C947C000C9421020C94FB0140
:100050000C947C000C947C000C947C000C947C0030
:100060000C947C000C947C0000000000250028000B
:100070002B0000000000240027002A0004040404D0
:100080000404040402020202020203030303030342
:10009000010204081020408001020408102001021F
:1000A000040810209D026A0411241FBECFEFD8E07F
:1000B000DEBFCDBF22E0A8E5B1E001C01D92AA30AD
:1000C000B207E1F711E0A0E0B1E0E0E7FDE002C037
:1000D00005900D92A835B107D9F710E0C3E5D0E03F
:1000E00004C02197FE010E94AA04C235D107C9F7B6
:1000F0000E9411030C94AB060C940000AF92BF92C7
:10010000CF92DF92EF92FF920F931F93CF93DF93E3
:100110006C017B018B01040F151FEB015E01AE1812
:10012000BF08C017D10759F06991D601ED91FC9134
:100130000190F081E02DC6010995892B79F7C50161
:10014000DF91CF911F910F91FF90EF90DF90CF90B3
:10015000BF90AF900895FC01538D448D252F30E062
:10016000842F90E0821B930B541710F0CF960895C4
:1001700001970895FC01918D828D981761F0A28DF1
:10018000AE0FBF2FB11D5D968C91928D9F5F9F73B7
:10019000928F90E008958FEF9FEF0895FC01918D6D
:1001A000828D981731F0828DE80FF11D858D90E0DA
:1001B00008958FEF9FEF0895FC01918D228D892F77
:1001C00090E0805C9F4F821B91098F73992708955F
:1001D00083E691E00E94DC0021E0892B09F420E015
:1001E000822F089580E090E0892B29F00E94E8009A
:1001F00081110C9400000895FC01A48DA80FB92F63
:10020000B11DA35ABF4F2C91848D90E001968F733E
:100210009927848FA689B7892C93A089B1898C915D
:10022000837080648C93938D848D981306C00288AC
:10023000F389E02D80818F7D80830895EF92FF9276
:100240000F931F93CF93DF93EC0181E0888F9B8DF9
:100250008C8D98131AC0E889F989808185FF15C0B3
:100260009FB7F894EE89FF896083E889F9898081D6
:100270008370806480839FBF81E090E0DF91CF91A5
:100280001F910F91FF90EF900895F62E0B8D10E0C7
:100290000F5F1F4F0F731127E02E8C8D8E110CC036
:1002A0000FB607FCFACFE889F989808185FFF5CF81
:1002B000CE010E94FC00F1CFEB8DEC0FFD2FF11D64
:1002C000E35AFF4FF0829FB7F8940B8FEA89FB89BE
:1002D00080818062CFCFCF93DF93EC01888D88231C
:1002E000B9F0AA89BB89E889F9898C9185FD03C099
:1002F000808186FD0DC00FB607FCF7CF8C9185FF7E
:10030000F2CF808185FFEDCFCE010E94FC00E9CFC6
:10031000DF91CF9108953FB7F89480915D0190915E
:100320005E01A0915F01B091600126B5A89B05C058
:100330002F3F19F00196A11DB11D3FBFBA2FA92F64
:10034000982F8827BC01CD01620F711D811D911D61
:1003500042E0660F771F881F991F4A95D1F70895CD
:10036000CF93DF93FC0101900020E9F73197AF01B3
:10037000481B590BBC0183E691E00E947E00EC0112
:1003800042E050E068E171E083E691E00E947E0087
:100390008C0F9D1FDF91CF910895CF93DF93EC01D8
:1003A0008091000290910102009759F02091020281
:1003B000309103022C173D0720F081E0DF91CF91AF
:1003C0000895BE016F5F7F4F0E94D505009789F0A9
:1003D0009093010280930002D0930302C093020223
:1003E0002091040230910502232B39F7FC01108281
:1003F000E4CF80E0E3CF1F920F920FB60F9211244B
:100400002F933F934F935F936F937F938F939F931C
:10041000AF93BF93EF93FF9383E691E00E94FC00BC
:10042000FF91EF91BF91AF919F918F917F916F91CC
:100430005F914F913F912F910F900FBE0F901F90A2
:1004400018951F920F920FB60F9211242F938F932E
:100450009F93EF93FF93E0917301F091740180817A
:10046000E0917901F0917A0182FD1BC09081809129
:100470007C018F5F8F7320917D01821741F0E091A5
:100480007C01F0E0ED59FE4F958F80937C01FF9148
:10049000EF919F918F912F910F900FBE0F901F9012
:1004A00018958081F4CF1F920F920FB60F921124EE
:1004B0002F933F938F939F93AF93BF938091590155
:1004C00090915A01A0915B01B0915C01309158016B
:1004D00023E0230F2D3758F50196A11DB11D209360
:1004E00058018093590190935A01A0935B01B093F6
:1004F0005C0180915D0190915E01A0915F01B091DE
:1005000060010196A11DB11D80935D0190935E0174
:10051000A0935F01B0936001BF91AF919F918F91C4
:100520003F912F910F900FBE0F901F90189526E8C6
:10053000230F0296A11DB11DD2CF10926601109219
:10054000650188EE93E0A0E0B0E0809367019093AE
:100550006801A0936901B0936A018AE091E09093E9
:1005600064018093630185EC90E090937001809327
:100570006F0184EC90E0909372018093710180ECA4
:1005800090E0909374018093730181EC90E09093DC
:1005900076018093750182EC90E0909378018093CE
:1005A000770186EC90E090937A0180937901109224
:1005B0007C0110927D0110927E0110927F011092B9
:1005C0000102109200021092030210920202109295
:1005D00005021092040290E080E00E94CD0120917B
:1005E000000230910102811113C02115310519F06B
:1005F000C9010E944C051092010210920002109253
:100600000502109204021092030210920202089551
:1006100010920502109204026AE171E0C9010C9483
:10062000A406CF93DF9300D0CDB7DEB7789484B51E
:10063000826084BD84B5816084BD85B5826085BDDE
:1006400085B5816085BD80916E00816080936E006C
:10065000109281008091810082608093810080915E
:10066000810081608093810080918000816080930F
:1006700080008091B10084608093B1008091B000CF
:1006800081608093B00080917A00846080937A00CA
:1006900080917A00826080937A0080917A008160F4
:1006A00080937A0080917A00806880937A0010921B
:1006B000C100E0917301F091740182E08083E091C8
:1006C0006F01F09170011082E0917101F09172015F
:1006D0008FEC808310927B01E0917701F09178019B
:1006E00086E08083E0917501F091760180818061E0
:1006F0008083E0917501F09176018081886080832C
:10070000E0917501F0917601808180688083E091AD
:100710007501F091760180818F7D8083EDE9F0E0B5
:100720002491E9E8F0E08491882399F090E0880F23
:10073000991FFC01EE58FF4FA591B491FC01E859B7
:10074000FF4F859194918FB7F894EC91E22BEC9345
:100750008FBF8BE191E00E94B00190E0C92E90E044
:10076000D92E83E691E00E94DC00181619060CF0E1
:1007700056C083E691E00E94BA0000916101109199
:1007800062010F5F1F4F1093620100936101898323
:100790001A82E0900402F09005022FEFE21AF20AAA
:1007A000C7010E94CD01882399F020910002309169
:1007B00001028091040290910502BE016F5F7F4F9C
:1007C000820F931F0E94A406F0920502E092040299
:1007D0000C30110531F640910402509105026091F0
:1007E00000027091010283E691E00E947E008091F8
:1007F000040290910502892B79F065E371E0809104
:100800000002909101020E949B06892B29F482E448
:1008100091E00E94B001A5CF8CE491E0FACF109254
:1008200062011092610190E080E00E94CD01209170
:10083000000230910102811143C02115310519F0E8
:10084000C9010E944C051092010210920002109200
:1008500005021092040210920302109202020E94FA
:100860008B012B013C0184EF882E99249394A12CB9
:10087000B12C0E948B016419750986099709683E9D
:10088000734081059105A8F381E0881A9108A108B9
:10089000B10828EE420E23E0521E611C711C811427
:1008A0009104A104B10429F7C114D10409F459CF6A
:1008B0000E94E800882309F454CF0E94000051CF21
:1008C00010920502109204026AE171E0C9010E94CF
:1008D000A406C5CF8091000290910102009711F00B
:1008E0000C944C0508952F923F924F925F926F9215
:1008F0007F928F929F92AF92BF92CF92DF92EF92B0
:10090000FF920F931F93CF93DF93CDB7DEB7CA1B30
:10091000DB0B0FB6F894DEBF0FBECDBF09942A885B
:10092000398848885F846E847D848C849B84AA8403
:10093000B984C884DF80EE80FD800C811B81AA8190
:10094000B981CE0FD11D0FB6F894DEBF0FBECDBF5B
:10095000ED010895EE0FFF1F0590F491E02D09942D
:100960000F931F93CF93DF938230910510F482E0B1
:1009700090E0E0910802F091090230E020E0B0E060
:10098000A0E0309799F42115310509F44AC0281BDD
:10099000390B24303105D8F58A819B8161157105A9
:1009A00089F1FB0193838283FE0111C04081518153
:1009B0000281138148175907E0F04817590799F445
:1009C000109761F012960C93129713961C9332961F
:1009D000CF01DF91CF911F910F91089500930802ED
:1009E00010930902F4CF2115310551F04217530736
:1009F00038F0A901DB019A01BD01DF01F801C1CF87
:100A0000EF01F9CF9093090280930802CDCFFE0148
:100A1000E20FF31F81939193225031093983288388
:100A2000D7CF2091060230910702232B41F4209169
:100A300002013091030130930702209306022091B6
:100A40000001309101012115310541F42DB73EB768
:100A50004091040150910501241B350BE0910602E1
:100A6000F0910702E217F307A0F42E1B3F0B2817A3
:100A7000390778F0AC014E5F5F4F2417350748F017
:100A80004E0F5F1F5093070240930602819391938C
:100A90009FCFF0E0E0E09CCFCF93DF930097E9F0A9
:100AA000FC01329713821282A0910802B0910902D0
:100AB000ED0130E020E01097A1F420813181820F18
:100AC000931F20910602309107022817390709F079
:100AD00061C0F0930702E0930602DF91CF91089581
:100AE000EA01CE17DF07E8F54A815B819E014115D7
:100AF0005105B1F7E901FB83EA8349915991C40F8C
:100B0000D51FEC17FD0761F4808191810296840F57
:100B1000951FE90199838883828193819B838A83CE
:100B2000F0E0E0E012968D919C9113970097B9F553
:100B30002D913C911197CD010296820F931F209128
:100B40000602309107022817390739F6309751F518
:100B50001092090210920802B0930702A0930602B5
:100B6000BCCFD383C28340815181840F951FC817A6
:100B7000D90761F44E5F5F4F88819981480F591FF3
:100B8000518340838A819B81938382832115310520
:100B900009F0B0CFF0930902E09308029ECFFD0167
:100BA000DC01C0CF13821282D7CFB0E0A0E0EBED22
:100BB000F5E00C9475048C01009751F4CB010E9470
:100BC000B0048C01C801CDB7DEB7E0E10C9491040C
:100BD000FC01E60FF71F9C0122503109E217F307D1
:100BE00008F49DC0D901CD91DC911197C617D707A4
:100BF00098F0C530D10530F3CE01049786179707DA
:100C000008F3C61BD70B2297C193D1936D937C93A6
:100C1000CF010E944C05D6CF5B01AC1ABD0A4C0136
:100C20008C0E9D1EA0910802B0910902512C412CFE
:100C3000F12CE12C109731F580910602909107027A
:100C40008815990509F05CC04616570608F058C08B
:100C50008091000190910101009741F48DB79EB7FA
:100C60004091040150910501841B950BE817F90789
:100C700008F055C0F0930702E0930602F901718372
:100C80006083A0CF8D919C91119712966C901297D2
:100C900013967C901397A815B90559F56C0142E09D
:100CA000C40ED11CCA14DB0420F1AC014A195B0943
:100CB000DA011296159780F0628273825183408325
:100CC000D9016D937C93E114F10471F0D70113966F
:100CD000FC93EE93129776CF22968C0F9D1FF9010D
:100CE00091838083F301EFCFF0930902E093080230
:100CF00069CF4816590608F42C017D01D3019ACF1B
:100D0000CB010E94B0047C01009749F0AE01B8010C
:100D10000E949206C8010E944C05870153CF10E043
:100D200000E050CFFB01DC0102C001900D92415068
:100D30005040D8F70895FB01DC018D910190801996
:100D40000110D9F3990B0895FB01DC0101900D927C
:100D50000020E1F7089510E0C3E5D0E004C0FE01F3
:100D60000E94AA042196C435D107C9F7F894FFCF91
:100D700000000A028000000000001E017E00AB009F
:100D80006B01DC00BA00CE000D0A00506C65617387
:100D900065207363616E20796F75722052464944F5
:100DA00020544147004142313233343536373839E7
:100DB000410056616C69642054414700496E766178
:080DC0006C69642054414700F6
:00000001FF
