:020000040000FA
:100000000C9463000C948B000C948B000C94A00552
:100010000C94A0050C94A0050C948B000C948B0000
:100020000C948B000C948B000C948B000C948B0024
:100030000C948B000C948B000C948B000C948B0014
:100040000C9437040C948B000C9405040C94DF037F
:100050000C948B000C948B000C948B000C948B00F4
:100060000C9481040C948B00000000080002010035
:100070000003040700000000000000000000000072
:1000800023002600290000000000240027002A0089
:1000900000000000250028002B00040404040404D0
:1000A0000404020202020202030303030303010227
:1000B00004081020408001020408102001020408F6
:1000C000102018069D0911241FBECFEFD8E0DEBF17
:1000D000CDBF23E0AEE3B1E001C01D92A831B2076D
:1000E000E1F711E0A0E0B1E0EAEFF7E102C005902E
:1000F0000D92AE33B107D9F710E0C2E6D0E004C0EC
:100100002197FE010E94F809C136D107C9F70E9464
:100110005B070C94F00B0C94000008950895AF92C7
:10012000BF92CF92DF92EF92FF920F931F93CF93E4
:10013000DF936C017B018B01040F151FEB015E0146
:10014000AE18BF08C017D10759F06991D601ED91DB
:10015000FC910190F081E02DC6010995892B79F77A
:10016000C501DF91CF911F910F91FF90EF90DF902C
:10017000CF90BF90AF900895FC01538D448D252FF3
:1001800030E0842F90E0821B930B541710F0CF9631
:10019000089501970895FC01918D828D981761F063
:1001A000A28DAE0FBF2FB11D5D968C91928D9F5F7A
:1001B0009F73928F90E008958FEF9FEF0895FC0159
:1001C000918D828D981731F0828DE80FF11D858D0C
:1001D00090E008958FEF9FEF0895FC01918D228D9F
:1001E000892F90E0805C9F4F821B91098F73992724
:1001F000089586E492E00E94ED0021E0892B09F445
:1002000020E0822F089580E090E0892B29F00E9461
:10021000F90081110C9400000895FC01A48DA80F31
:10022000B92FB11DA35ABF4F2C91848D90E0019638
:100230008F739927848FA689B7892C93A089B18958
:100240008C91837080648C93938D848D981306C0F9
:100250000288F389E02D80818F7D80830895EF925D
:10026000FF920F931F93CF93DF93EC0181E0888F70
:100270009B8D8C8D98131AC0E889F989808185FF40
:1002800015C09FB7F894EE89FF896083E889F989E2
:1002900080818370806480839FBF81E090E0DF91E4
:1002A000CF911F910F91FF90EF900895F62E0B8D37
:1002B00010E00F5F1F4F0F731127E02E8C8D8E11F2
:1002C0000CC00FB607FCFACFE889F989808185FF59
:1002D000F5CFCE010E940D01F1CFEB8DEC0FFD2F7C
:1002E000F11DE35AFF4FF0829FB7F8940B8FEA8914
:1002F000FB8980818062CFCFCF93DF93EC01888D23
:100300008823B9F0AA89BB89E889F9898C9185FD90
:1003100003C0808186FD0DC00FB607FCF7CF8C911E
:1003200085FFF2CF808185FFEDCFCE010E940D01C8
:10033000E9CFDF91CF91089590E0FC01E859FF4F9C
:100340002491FC01E255FF4F3491FC01E656FF4F2A
:10035000E491EE23C9F0222339F0233001F1A8F40F
:10036000213019F1223029F1F0E0EE0FFF1FE057A4
:10037000FF4FA591B4918FB7F894EC91611126C00D
:1003800030953E233C938FBF08952730A9F0283045
:10039000C9F0243049F7809180008F7D03C080919F
:1003A00080008F7780938000DFCF84B58F7784BD06
:1003B000DBCF84B58F7DFBCF8091B0008F778093AA
:1003C000B000D2CF8091B0008F7DF9CF3E2BDACF35
:1003D0003FB7F8948091E7019091E801A091E9017D
:1003E000B091EA0126B5A89B05C02F3F19F00196F0
:1003F000A11DB11D3FBFBA2FA92F982F8827BC017F
:10040000CD01620F711D811D911D42E0660F771FA6
:10041000881F991F4A95D1F708952091BF01260F93
:100420003327331F21323105ECF420911B02FC01EC
:1004300090E080E0243069F082E00895A091BF014F
:100440002191AC0141565E4FA40FB52FB11D2C93E5
:100450000196861798F38091BF01680F6093BF01E2
:1004600080E0089581E0089510921B0281E080935E
:100470001A021092F50161E082E10E949C0161E0A4
:1004800083E10E949C01E9EBF0E080818E7F808314
:1004900080818D7F808388E48093B80085E4809399
:1004A000BC000895CF93DF9391E090939E01882341
:1004B000B9F0C091B800D091BA008091BC008A7B9D
:1004C0008093BC0060E082E10E949C0160E083E1D7
:1004D0000E949C010E943402D093BA00C093B800DD
:1004E000DF91CF9108950895E091F0018091EF019F
:1004F000E81730F4F0E0E258FE4F808190E0089574
:100500008FEF9FEF08959091F0018091EF012FEF11
:100510003FEF981748F4E92FF0E0E258FE4F2081B2
:1005200030E09F5F9093F001C90108958091EF0141
:100530009091F001891B990B0895CF92DF92EF9271
:10054000FF920F931F93CF93DF937C01CB018A011E
:1005500020912102222389F0EB016B01C40ED51EEC
:10056000CC15DD0569F06991D701ED91FC91019001
:10057000F081E02DC7010995F3CF642F0E940D0291
:10058000C801DF91CF911F910F91FF90EF90DF9005
:10059000CF900895CF93DF931F92CDB7DEB76983D5
:1005A000209121022223F9F020914402203258F0B8
:1005B00021E030E0FC013383228390E080E00F9063
:1005C000DF91CF91089580912202E82FF0E0ED5D58
:1005D000FD4F998190838F5F809322028093440224
:1005E00081E090E0ECCF61E0CE0101960E940D0227
:1005F000F7CF2091F3013091F4012817390771F4F6
:100600009091F1018091F201981741F0E091F10190
:10061000F0E0E25CFE4F808190E008958FEF9FEF65
:100620000895EF92FF920F931F93CF93DF93DC0116
:100630005C96ED90FC905D97E114F10479F481E013
:1006400090E013969C938E93129790E080E0DF9158
:10065000CF911F910F91FF90EF9008955196ED91DA
:10066000FC91529750968C915097982F90950FB778
:100670005E962C915E97122F127021FD6095F89472
:100680002081112319F1282B2083E7012197F1F70D
:1006900028E0462F50E0308160FF1AC0382B3083AD
:1006A000E7012197F1F7BA0175956795215089F710
:1006B000112381F08081892380830FBF5C968D9107
:1006C0009C910197F1F781E090E0C1CF2923DCCF25
:1006D0003923E5CF9081892BEFCF2091F301309121
:1006E000F4012817390761F48091F2012091F1019A
:1006F00090E0805C9F4F821B91098F73992708952A
:1007000090E080E008952091F3013091F4012817E2
:100710003907B9F49091F1018091F201981789F0AD
:10072000E091F101F0E0E25CFE4F80812091F10167
:1007300030E02F5F3F4F2F7333272093F10190E07C
:1007400008958FEF9FEF089590E080E0089585ED84
:100750008093BC0080911D0290911E02A0911F0207
:10076000B09120020796A11DB11D23E0B695A79573
:10077000979587952A95D1F72091BC0024FD03C059
:1007800010921B02089540911D0250911E0260912B
:100790001F0270912002452B462B472B69F30097CF
:1007A000A105B10541F02AE22A95F1F700C00197B1
:1007B000A109B109E1CF80911C020C9452021F9251
:1007C0000F920FB60F9211242F933F934F935F9385
:1007D0006F937F938F939F93AF93BF93EF93FF9309
:1007E00086E492E00E940D01FF91EF91BF91AF91DD
:1007F0009F918F917F916F915F914F913F912F9139
:100800000F900FBE0F901F9018951F920F920FB66A
:100810000F9211242F938F939F93EF93FF93E09167
:100820005602F09157028081E0915C02F0915D02E6
:1008300082FD1BC0908180915F028F5F8F7320913A
:100840006002821741F0E0915F02F0E0EA5BFD4F49
:10085000958F80935F02FF91EF919F918F912F91E0
:100860000F900FBE0F901F9018958081F4CF1F92AC
:100870000F920FB60F9211242F933F938F939F9354
:10088000AF93BF938091E3019091E401A091E501C2
:10089000B091E6013091E20123E0230F2D3758F5A6
:1008A0000196A11DB11D2093E2018093E301909375
:1008B000E401A093E501B093E6018091E7019091F6
:1008C000E801A091E901B091EA010196A11DB11DD5
:1008D0008093E7019093E801A093E901B093EA01C6
:1008E000BF91AF919F918F913F912F910F900FBE2C
:1008F0000F901F90189526E8230F0296A11DB11D99
:10090000D2CF1F920F920FB60F9211242F933F93C5
:100910004F935F936F937F938F939F93AF93BF9307
:10092000EF93FF938091B900887F803609F44AC025
:10093000F0F5883209F4A7C018F5803109F49BC09E
:10094000B8F4882309F4F9C0883009F494C0FF9101
:10095000EF91BF91AF919F918F917F916F915F9137
:100960004F913F912F910F900FBE0F901F901895B0
:10097000883109F488C0803251F78093190214C07D
:10098000803409F49DC040F48033B9F38833F9F61C
:100990008093190285ECB0C0803509F485C0883594
:1009A00009F496C0883499F60E94A703D0CF8839FD
:1009B00009F48CC038F5883729F050F4883611F0E6
:1009C000803729F683E080931B021092E10157C023
:1009D000883809F47BC0803919F0803809F0B7CF26
:1009E0008091E101803208F071C0E091E10181E085
:1009F0008E0F8093E1018091BB00F0E0EF53FE4F3A
:100A000080833DC0803B39F0E0F4803A09F479C03E
:100A1000883A09F09CCF84E080931B021092C001B9
:100A20001092BF01E091ED01F091EE0109958091E6
:100A3000BF0181110FC081E08093BF0110929F011F
:100A400009C0803C09F4A6CF883C09F4A3CF883BB9
:100A500009F07DCFE091C00181E08E0F8093C0014D
:100A6000F0E0E156FE4F80818093BB009091C00181
:100A70008091BF0129C08091F6018093BB0085EC75
:100A80008093BC0064CF9091180280911702981750
:100A900058F5E091180281E08E0F80931802F0E083
:100AA000E950FE4F8081E9CFE091180281E08E0F7E
:100AB000809318028091BB00F0E0E950FE4F8083E4
:100AC00090911802809117029817C8F285E8D8CF44
:100AD000E091180281E08E0F809318028091BB0094
:100AE000F0E0E950FE4F808380911A0281115CCFC3
:100AF00081E08093F50184EA8093BC0010921B0290
:100B000026CF85EC8093BC0010921B028091E101FE
:100B1000803230F4E091E101F0E0EF53FE4F1082BB
:100B20006091E10170E0E091EB01F091EC0181EC6A
:100B300091E009951092E1010ACF1092190234CF89
:100B40001F920F920FB60F9211242F933F934F9342
:100B50005F936F937F938F939F93AF93BF93EF9325
:100B6000FF93E091F301F091F401309749F0A685ED
:100B7000B7858585968D91FF14C09C918923A1F43A
:100B8000FF91EF91BF91AF919F918F917F916F9165
:100B90005F914F913F912F910F900FBE0F901F903B
:100BA00018959C91892361F7A389B4899C918589C3
:100BB000809589238C93868997890197F1F7608DB9
:100BC000718DA685B785558538E020E0CB0101976A
:100BD000F1F7822F90E095958795282F4C9145232A
:100BE00009F02068315091F7868D81FD2095809124
:100BF000F20190E001968F7399273091F101381737
:100C000099F0A091F201B0E0A25CBE4F2C938093CA
:100C1000F201828D938D0197F1F7A389B4898C91AC
:100C20009589892B8C93ACCF868D8160868FF1CF8F
:100C30000F931F93CF93DF931092490210924802B3
:100C400088EE93E0A0E0B0E080934A0290934B02DC
:100C5000A0934C02B0934D022AE031E0309347025A
:100C60002093460225EC30E0309353022093520249
:100C700024EC30E0309355022093540220EC30E015
:100C8000309357022093560221EC30E03093590202
:100C90002093580222EC30E030935B0220935A02FA
:100CA00026EC30E030935D0220935C0210925F02EC
:100CB0001092600210926102109262021092E6029B
:100CC0001092E5028093E7029093E802A093E90274
:100CD000B093EA022CE131E03093E4022093E30286
:100CE0001092F8021092F7028093F9029093FA02A0
:100CF000A093FB02B093FC028EE291E09093F60287
:100D00008093F50210920C0310920B0310920E03C5
:100D100010920D031092100310920F031092120301
:100D200010921103609113036E7F6D7F6093130324
:100D30006695617081E0682783E00E949C0141EB29
:100D400050E0FA0164918DE990E0FC0124912223A6
:100D500099F030E0220F331FF901EA57FF4FA591B8
:100D6000B491F901E057FF4F259134912FB7F894D2
:100D70003C91632B6C932FBFFA0144914093050380
:100D8000FC018491E82FF0E0EE0FFF1FE057FF4FCA
:100D900085919491909307038093060300EB10E0F4
:100DA000F8012491CCE9D0E0FE0184918823C9F0B8
:100DB00090E0880F991FFC01EA57FF4FA591B4916D
:100DC000FC01E057FF4F459154913FB7F8949C9137
:100DD000822F809598239C93FA01908189238083A8
:100DE0003FBF8091130381FD04C061E082E00E9457
:100DF0009C0182E080930103F801049100930203B7
:100E0000FE01C491EC2FF0E0EE0FFF1FE458FF4FFE
:100E10008591949190930403809303031092F002C0
:100E20001092EF021092F2021092F1021092F4026C
:100E30001092F30261E070E090E080E00E94230BEA
:100E4000009701F19093F0028093EF021092F2026A
:100E50001092F1022091F3023091F402232B11F44D
:100E6000FC0110821092F4021092F3026CE371E024
:100E70008091EF029091F002DF91CF911F910F913D
:100E80000C94E90B8091EF029091F002009711F021
:100E90000E949A0A1092F0021092EF021092F4024D
:100EA0001092F3021092F2021092F102DF91CF91B0
:100EB0001F910F910895789484B5826084BD84B5A4
:100EC000816084BD85B5826085BD85B5816085BD45
:100ED00080916E00816080936E00109281008091FD
:100EE0008100826080938100809181008160809385
:100EF0008100809180008160809380008091B100AA
:100F000084608093B1008091B00081608093B000D4
:100F100080917A00846080937A0080917A00826068
:100F200080937A0080917A00816080937A0080912A
:100F30007A00806880937A001092C1001092F001CC
:100F40001092EF0110922202109244020E94340289
:100F50008DE890E09093EE018093ED018EE890E0B3
:100F60009093EC018093EB01E0915602F0915702CF
:100F700082E08083E0915202F09153021082E0916E
:100F80005402F09155028FEC808310925E02E09142
:100F90005A02F0915B0286E08083E0915802F09162
:100FA0005902808180618083E0915802F09159025A
:100FB000808188608083E0915802F091590280819D
:100FC00080688083E0915802F091590280818F7D82
:100FD00080831092100310920F0310920E03109250
:100FE0000D0310920C0310920B038DE991E0909386
:100FF00012038093110390910103963108F047C0CA
:101000002DEB30E030930C0320930B032BE931E000
:1010100030930E0320930D032CE231E03093100344
:1010200020930F032091680084E0983048F031E06D
:101030009E3008F430E081E001C0880F3A95EAF76D
:10104000822B809368002DE630E0983050F02BE63C
:1010500030E09E3030F02CE630E0963110F030E099
:1010600020E03093090320930803292F30E09830C3
:1010700008F0D1C081E001C0880F9A95EAF780930B
:101080000A0380911103909112030197F1F7809167
:101090000F0390911003892B49F1E091F301F09136
:1010A000F40122E0E53FF20709F1309739F0A38916
:1010B000B4899C918589809589238C9380911303B1
:1010C0008E7F809313031092F2011092F10185EF4D
:1010D00092E09093F4018093F301E0910803F09182
:1010E0000903808190910A03892B808305EE95EC9A
:1010F000792EC0E0D0E011E028E0622E32E0532EDD
:1011000044244A9485EF92E00E946D031816190654
:101110000CF0E3C085EF92E00E94830380934502C8
:101120001093210260924302109222021092440214
:10113000682F83EE92E00E94CA02F090440280E29F
:101140008F1508F49AC00E94E8014B015C01809160
:101150001B0281116DC050921B0210931A02409223
:10116000190210921802F0921702A3E2B2E0E7EF20
:10117000F1E0F81289C01092F6018091F6018061C9
:101180008093F6018091F501813009F081C01092C1
:10119000F5010E94E8016B017C018091F6018093CA
:1011A000BB0080911D0290911E02A0911F02B09180
:1011B0002002892B8A2B8B2BA1F00E94E8018090C2
:1011C0001D0290901E02A0901F02B09020026C1988
:1011D0007D098E099F0986169706A806B90608F4A8
:1011E00048C08091BC0083FDD8CF7092BC000E94A3
:1011F000E8016B017C0180911B02823009F44BC035
:10120000809119028F3FC9F1809119028032A9F1B2
:101210008091190232C09E3040F42850310981E09B
:1012200001C0880F2A95EAF72ACF2E503109F7CF4F
:1012300080911D0290911E02A0911F02B091200288
:10124000892B8A2B8B2B09F482CF0E94E8012091F5
:101250001D0230911E0240911F0250912002681918
:1012600079098A099B09261737074807590708F0A3
:101270006ECF80911C020E945202109222021092A4
:101280004402109221023ECF9D9191938F5F71CFC6
:101290000093BC00ACCF80911D0290911E02A091E2
:1012A0001F02B0912002892B8A2B8B2B09F4A3CF2C
:1012B0000E94E80180901D0290901E02A0901F02E3
:1012C000B09020026C197D098E099F098616970639
:1012D000A806B90608F08FCFCCCF0E94E8014B01D9
:1012E0005C0184EFC82EDD24D394E12CF12C0E9404
:1012F000E801681979098A099B09683E73408105EC
:101300009105A8F321E0C21AD108E108F10888EE9E
:10131000880E83E0981EA11CB11CC114D104E10405
:10132000F10429F7209709F4EDCE0E94F9008823F3
:1013300009F4E8CE0E940000E5CE8091EF02909182
:10134000F002009711F00E949A0A8EE291E09093C9
:10135000F6028093F5028091F3019091F401855F8C
:10136000924071F4E0910803F0910903908180911B
:101370000A038095892380831092F4011092F3016F
:1013800008952F923F924F925F926F927F928F9229
:101390009F92AF92BF92CF92DF92EF92FF920F9304
:1013A0001F93CF93DF93CDB7DEB7CA1BDB0B0FB60E
:1013B000F894DEBF0FBECDBF09942A8839884888CB
:1013C0005F846E847D848C849B84AA84B984C88461
:1013D000DF80EE80FD800C811B81AA81B981CE0F58
:1013E000D11D0FB6F894DEBF0FBECDBFED0108953D
:1013F000EE0FFF1F0590F491E02D09940F931F93BA
:10140000CF93DF938230910510F482E090E0E09179
:101410001603F091170330E020E0B0E0A0E0309731
:1014200099F42115310509F44AC0281B390B2430E1
:101430003105D8F58A819B816115710589F1FB0120
:1014400093838283FE0111C0408151810281138107
:1014500048175907E0F04817590799F4109761F0B9
:1014600012960C93129713961C933296CF01DF912C
:10147000CF911F910F9108950093160310931703B6
:10148000F4CF2115310551F04217530738F0A90167
:10149000DB019A01BD01DF01F801C1CFEF01F9CFF6
:1014A0009093170380931603CDCFFE01E20FF31F35
:1014B000819391932250310939832883D7CF20918A
:1014C000140330911503232B41F420910201309134
:1014D00003013093150320931403209100013091F0
:1014E00001012115310541F42DB73EB740910401AA
:1014F00050910501241B350BE0911403F091150365
:10150000E217F307A0F42E1B3F0B2817390778F0DA
:10151000AC014E5F5F4F2417350748F04E0F5F1F39
:101520005093150340931403819391939FCFF0E060
:10153000E0E09CCFCF93DF930097E9F0FC01329776
:1015400013821282A0911603B0911703ED0130E0CF
:1015500020E01097A1F420813181820F931F209108
:101560001403309115032817390709F061C0F0936F
:101570001503E0931403DF91CF910895EA01CE178C
:10158000DF07E8F54A815B819E0141155105B1F7FE
:10159000E901FB83EA8349915991C40FD51FEC17E8
:1015A000FD0761F4808191810296840F951FE90106
:1015B00099838883828193819B838A83F0E0E0E032
:1015C00012968D919C9113970097B9F52D913C91AE
:1015D0001197CD010296820F931F20911403309131
:1015E00015032817390739F6309751F5109217036C
:1015F00010921603B0931503A0931403BCCFD383AA
:10160000C28340815181840F951FC817D90761F4A7
:101610004E5F5F4F88819981480F591F51834083E6
:101620008A819B81938382832115310509F0B0CF94
:10163000F0931703E09316039ECFFD01DC01C0CFAA
:1016400013821282D7CFB0E0A0E0E9E2FBE00C9475
:10165000C3098C01009751F4CB010E94FE098C0153
:10166000C801CDB7DEB7E0E10C94DF09FC01E60F5D
:10167000F71F9C0122503109E217F30708F49DC0BF
:10168000D901CD91DC911197C617D70798F0C530D5
:10169000D10530F3CE0104978617970708F3C61BD0
:1016A000D70B2297C193D1936D937C93CF010E9466
:1016B0009A0AD6CF5B01AC1ABD0A4C018C0E9D1E56
:1016C000A0911603B0911703512C412CF12CE12C61
:1016D000109731F5809114039091150388159905A1
:1016E00009F05CC04616570608F058C0809100010A
:1016F00090910101009741F48DB79EB7409104018C
:1017000050910501841B950BE817F90708F055C0A7
:10171000F0931503E0931403F90171836083A0CF64
:101720008D919C91119712966C90129713967C90C4
:101730001397A815B90559F56C0142E0C40ED11CE8
:10174000CA14DB0420F1AC014A195B09DA011296D4
:10175000159780F06282738251834083D9016D9323
:101760007C93E114F10471F0D7011396FC93EE938E
:10177000129776CF22968C0F9D1FF901918380835B
:10178000F301EFCFF0931703E093160369CF4816E8
:10179000590608F42C017D01D3019ACFCB010E9498
:1017A000FE097C01009749F0AE01B8010E94E00BF0
:1017B000C8010E949A0A870153CF10E000E050CF81
:1017C000FB01DC0102C001900D9241505040D8F75E
:1017D0000895FB01DC0101900D920020E1F70895CE
:1017E00010E0C2E6D0E004C0FE010E94F809219694
:1017F000C336D107C9F7F894FFCF00001803800063
:10180000000000002F018F00BC007C01ED00CB0028
:10181000DF0000000000CA029D02A40373029602CA
:10182000830274020000000011038F00A4037302FE
:081830006D038303F9020000BF
:107E0000112484B714BE81FFF0D085E080938100F7
:107E100082E08093C00088E18093C10086E0809377
:107E2000C20080E18093C4008EE0C9D0259A86E02C
:107E300020E33CEF91E0309385002093840096BBD3
:107E4000B09BFECF1D9AA8958150A9F7CC24DD24C4
:107E500088248394B5E0AB2EA1E19A2EF3E0BF2EE7
:107E6000A2D0813461F49FD0082FAFD0023811F036
:107E7000013811F484E001C083E08DD089C08234E0
:107E800011F484E103C0853419F485E0A6D080C0E4
:107E9000853579F488D0E82EFF2485D0082F10E0AE
:107EA000102F00270E291F29000F111F8ED06801E7
:107EB0006FC0863521F484E090D080E0DECF843638
:107EC00009F040C070D06FD0082F6DD080E0C81688
:107ED00080E7D80618F4F601B7BEE895C0E0D1E017
:107EE00062D089930C17E1F7F0E0CF16F0E7DF06D8
:107EF00018F0F601B7BEE89568D007B600FCFDCFD4
:107F0000A601A0E0B1E02C9130E011968C91119780
:107F100090E0982F8827822B932B1296FA010C0160
:107F200087BEE89511244E5F5F4FF1E0A038BF0790
:107F300051F7F601A7BEE89507B600FCFDCF97BE46
:107F4000E89526C08437B1F42ED02DD0F82E2BD052
:107F50003CD0F601EF2C8F010F5F1F4F84911BD097
:107F6000EA94F801C1F70894C11CD11CFA94CF0C13
:107F7000D11C0EC0853739F428D08EE10CD085E9AC
:107F80000AD08FE07ACF813511F488E018D01DD067
:107F900080E101D065CF982F8091C00085FFFCCF94
:107FA0009093C60008958091C00087FFFCCF809118
:107FB000C00084FD01C0A8958091C6000895E0E648
:107FC000F0E098E1908380830895EDDF803219F02E
:107FD00088E0F5DFFFCF84E1DECF1F93182FE3DFCA
:107FE0001150E9F7F2DF1F91089580E0E8DFEE27F6
:047FF000FF270994CA
:027FFE00040479
:00000001FF
