:020000040000FA
:100000000C945D000C9485000C9485000C94850084
:100010000C9485000C9485000C9485000C9485004C
:100020000C9485000C9485000C9485000C9485003C
:100030000C9485000C9485000C9485000C9485002C
:100040000C9430040C9485000C94FE030C94D8039B
:100050000C9485000C9485000C9485000C9485000C
:100060000C947A040C948500000000080002010042
:100070000003040700000000000000000000000072
:10008000250028002B0000000000240027002A0083
:10009000040404040404040402020202020203032E
:1000A0000303030301020408102040800102040836
:1000B0001020010204081020950511241FBECFEF67
:1000C000D8E0DEBFCDBF11E0A0E0B1E0E2EEFEE09F
:1000D00002C005900D92A231B107D9F722E0A2E14A
:1000E000B1E001C01D92A334B207E1F710E0CDE505
:1000F000D0E004C02197FE010E943307CC35D10720
:10010000C9F70E94F6050C946F070C94000090E06C
:10011000FC01EC55FF4F249180579F4FFC018491C7
:10012000882399F090E0880F991FFC01EA57FF4F50
:10013000A591B491FC01E458FF4F859194918FB73C
:10014000F894EC91E22BEC938FBF0895FC01538D52
:10015000448D252F30E0842F90E0821B930B5417A1
:1001600010F0CF96089501970895FC01918D828D2E
:10017000981761F0A28DAE0FBF2FB11D5D968C91C7
:10018000928D9F5F9F73928F90E008958FEF9FEF06
:100190000895FC01918D828D981731F0828DE80FC2
:1001A000F11D858D90E008958FEF9FEF0895FC017C
:1001B000918D228D892F90E0805C9F4F821B910949
:1001C0008F7399270895FC01A48DA80FB92FB11D35
:1001D000A35ABF4F2C91848D90E001968F7399277D
:1001E000848FA689B7892C93A089B1898C9183705B
:1001F00080648C93938D848D981306C00288F38954
:10020000E02D80818F7D80830895EF92FF920F9380
:100210001F93CF93DF93EC0181E0888F9B8D8C8DB2
:1002200098131AC0E889F989808185FF15C09FB7A6
:10023000F894EE89FF896083E889F9898081837069
:10024000806480839FBF81E090E0DF91CF911F9118
:100250000F91FF90EF900895F62E0B8D10E00F5F39
:100260001F4F0F731127E02E8C8D8E110CC00FB60F
:1002700007FCFACFE889F989808185FFF5CFCE01A7
:100280000E94E300F1CFEB8DEC0FFD2FF11DE35A3F
:10029000FF4FF0829FB7F8940B8FEA89FB8980812A
:1002A0008062CFCFCF93DF93EC01888D8823B9F0A4
:1002B000AA89BB89E889F9898C9185FD03C0808171
:1002C00086FD0DC00FB607FCF7CF8C9185FFF2CFEE
:1002D000808185FFEDCFCE010E94E300E9CFDF9161
:1002E000CF9108958CE891E00E94D70021E0892BFE
:1002F00009F420E0822F089580E090E0892B29F016
:100300000E94720181110C9400000895AF92BF9277
:10031000CF92DF92EF92FF920F931F93CF93DF93D1
:100320006C017B018B01040F151FEB015E01AE1800
:10033000BF08C017D10759F06991D601ED91FC9122
:100340000190F081E02DC6010995892B79F7C5014F
:10035000DF91CF911F910F91FF90EF90DF90CF90A1
:10036000BF90AF90089590E0FC01E859FF4F2491B1
:10037000FC01EC55FF4F3491FC01E057FF4FE49135
:10038000EE23C9F0222339F0233001F1A8F4213003
:1003900019F1223029F1F0E0EE0FFF1FE458FF4F72
:1003A000A591B4918FB7F894EC91611126C0309566
:1003B0003E233C938FBF08952730A9F02830C9F021
:1003C000243049F7809180008F7D03C080918000A8
:1003D0008F7780938000DFCF84B58F7784BDDBCFAC
:1003E00084B58F7DFBCF8091B0008F778093B00074
:1003F000D2CF8091B0008F7DF9CF3E2BDACFCF9353
:10040000DF93EC018091310290913202029749F41E
:10041000C130D10509F43BC06CF560E0209709F4C8
:1004200037C08091310290913202049749F4C13073
:10043000D10509F45CC00CF037C0209709F442C024
:100440008091310290913202059709F0E5C0CA30DF
:10045000D10508F0E1C0FE01E05DFD4F0C943307CB
:100460008F029B02AC02C202DD02DF02E602F20250
:1004700003030A03C230D105A9F060E0C330D105FF
:1004800081F6809135020E94B30160E006C061E010
:10049000809135020E94B30161E0809137020E9491
:1004A000B301BFCF61E0EDCFC230D10539F1C33028
:1004B000D10509F0C5CF61E0809135020E94B301FA
:1004C00060E022C061E0809135020E94B30160E0EB
:1004D000809137020E94B30161E0809139020E944D
:1004E000B30160E080913B020E94B301A9CF60E0BC
:1004F000809135020E94B30161E0EACF60E0809113
:1005000035020E94B30161E0809137020E94B3017D
:1005100060E0809139020E94B30161E0E3CF60E0C6
:10052000809135020E94B30161E0809137020E9400
:10053000B30161E00BC060E0809135020E94B3011D
:1005400061E0809137020E94B30160E0809139023E
:100550000E94B30160E010C060E0809135020E940B
:10056000B30161E0809137020E94B30160E08091A5
:1005700039020E94B30161E080913B020E94B30105
:1005800061E015C060E0809135020E94B30161E036
:10059000809137020E94B30160E0809139020E948D
:1005A000B30161E080913B020E94B30160E0809161
:1005B0003D02DF91CF910C94B30161E0E4CF61E0A3
:1005C000809135020E94B30160E0E2CF61E080914A
:1005D00035020E94B30160E0809137020E94B301AE
:1005E00061E0DBCF61E0809135020E94B30160E001
:1005F000809137020E94B30161E0809139020E942C
:10060000B30160E0CFCF61E0809135020E94B30179
:1006100060E08BCF60E0F8CFDF91CF91089520911B
:100620003901260F3327331F21323105ECF4209195
:100630005D01FC0190E080E0243069F082E00895E3
:10064000A09139012191AC01475E5E4FA40FB52FF7
:10065000B11D2C930196861798F380913901680F8C
:100660006093390180E0089581E0089508958FEF47
:100670009FEF08958FEF9FEF08958091120190E012
:100680009195819591090895CF93DF93CB01EA016C
:10069000642F0E940F03CE01DF91CF910895CF9375
:1006A000DF931F92CDB7DEB7698361E0CE0101967B
:1006B0000E940F0381E090E00F90DF91CF910895A9
:1006C00090E080E008951F93CF93DF9385ED8093B2
:1006D000BC008091150190911601A0911701B09175
:1006E00018010796A11DB11D23E0B695A795979512
:1006F00087952A95D1F72091BC0024FD03C0109264
:100700005D0152C040911501509116016091170191
:1007100070911801452B462B472B69F30097A105D3
:10072000B10541F02AE22A95F1F700C00197A1092D
:10073000B109E1CF80911401C1E0C0931301882376
:1007400099F1D091B8001091BA008091BC008A7BD9
:100750008093BC0060E082E10E94B30160E083E12D
:100760000E94B30110925D01C0935F0110925E017F
:1007700061E082E10E94B30161E083E10E94B30184
:100780008091B9008E7F8093B9008091B9008D7FF0
:100790008093B90088E48093B80085E48093BC001E
:1007A0001093BA00D093B800DF91CF911F910895B4
:1007B0001F920F920FB60F9211242F933F934F93D6
:1007C0005F936F937F938F939F93AF93BF93EF93B9
:1007D000FF938CE891E00E94E300FF91EF91BF91BD
:1007E000AF919F918F917F916F915F914F913F91C9
:1007F0002F910F900FBE0F901F9018951F920F9280
:100800000FB60F9211242F938F939F93EF93FF9323
:10081000E0919C01F0919D018081E091A201F09115
:10082000A30182FD1BC090818091A5018F5F8F7312
:100830002091A601821741F0E091A501F0E0E45774
:10084000FE4F958F8093A501FF91EF919F918F911E
:100850002F910F900FBE0F901F9018958081F4CFAD
:100860001F920F920FB60F9211242F933F938F93E5
:100870009F93AF93BF938091840190918501A09144
:100880008601B09187013091830123E0230F2D373A
:1008900058F50196A11DB11D209383018093840119
:1008A00090938501A0938601B09387018091880180
:1008B00090918901A0918A01B0918B010196A11DAF
:1008C000B11D8093880190938901A0938A01B09310
:1008D0008B01BF91AF919F918F913F912F910F907D
:1008E0000FBE0F901F90189526E8230F0296A11DAA
:1008F000B11DD2CF1F920F920FB60F9211242F93DA
:100900003F934F935F936F937F938F939F93AF9397
:10091000BF93EF93FF938091B900887F803609F4ED
:100920004AC0F0F5883209F4A5C018F5803109F401
:1009300099C0B8F4882309F4F5C0883009F492C04E
:10094000FF91EF91BF91AF919F918F917F916F91A7
:100950005F914F913F912F910F900FBE0F901F907D
:100960001895883109F486C0803251F780935C0174
:1009700014C0803409F49BC040F48033B9F3883349
:10098000F9F680935C0185ECAEC0803509F483C034
:10099000883509F494C0883499F60E946303D0CF57
:1009A000883909F48AC038F5883729F050F4883638
:1009B00011F0803729F683E080935D0110925B018E
:1009C00055C0883809F479C0803919F0803809F0A9
:1009D000B7CF80915B01803208F06FC0E0915B017E
:1009E00081E08E0F80935B018091BB00F0E0E55CBD
:1009F000FE4F80833BC0803B39F0D0F4803A09F44D
:100A000077C0883A09F09CCF84E080935D01109212
:100A10003A0110923901F0E0E0E009958091390146
:100A200081110FC081E0809339011092190109C032
:100A3000803C09F4A8CF883C09F4A5CF883B09F095
:100A40007FCFE0913A0181E08E0F80933A01F0E090
:100A5000E75EFE4F80818093BB0090913A018091C8
:100A6000390129C0809182018093BB0085EC80937D
:100A7000BC0066CF9091810180918001981758F554
:100A8000E091810181E08E0F80938101F0E0E05AD6
:100A9000FE4F8081E9CFE091810181E08E0F80934C
:100AA00081018091BB00F0E0E05AFE4F808390917D
:100AB0008101809180019817C8F285E8D8CFE09134
:100AC000810181E08E0F809381018091BB00F0E075
:100AD000E05AFE4F808380915F0181115ECF81E0FB
:100AE00080935E0184EA8093BC0010925D0128CF60
:100AF00085EC8093BC0010925D0180915B01803297
:100B000030F4E0915B01F0E0E55CFE4F1082609113
:100B10005B0170E08BE391E0F0E0E0E0099510927A
:100B20005B010ECF10925C0138CFCF93DF93ECE8DE
:100B3000F1E01382128288EE93E0A0E0B0E08483BB
:100B40009583A683B78384E091E09183808385ECCD
:100B500090E09587848784EC90E09787868780EC87
:100B600090E0918B808B81EC90E0938B828B82EC78
:100B700090E0958B848B86EC90E0978B868B118E22
:100B8000128E138E148EC9E2D2E01B861A86198249
:100B900018821E8A1F8A188E198E88EC90E09F8317
:100BA0008E8388E090E09D878C8789E090E09F8726
:100BB0008E878AE090E0998B888B8BE090E09B8B0E
:100BC0008A8B88E00E9487008E850E948700888932
:100BD0000E9487008A890E9487001D8A1C8A84E0FF
:100BE00090E099878887DF91CF910895789484B5B4
:100BF000826084BD84B5816084BD85B5826085BD19
:100C000085B5816085BD80916E00816080936E00A6
:100C10001092810080918100826080938100809198
:100C20008100816080938100809180008160809349
:100C300080008091B10084608093B1008091B00009
:100C400081608093B00080917A00846080937A0004
:100C500080917A00826080937A0080917A0081602E
:100C600080937A0080917A00806880937A00109255
:100C7000C10020912F0230913002032E000C440B52
:100C8000550B60E077E883E993E00E941407CA01FE
:100C9000B9012AE030E040E050E00E9414072093C0
:100CA0002B0230932C0240932D0250932E0201E030
:100CB00010E054E0C52ED12C6AE0A62EB12C70E0D5
:100CC000E72E70E0F72E10932A0200932902C8EC59
:100CD000D0E0209709F488C03FB7F894809188014C
:100CE00090918901A0918A01B0918B0126B5A89BB2
:100CF00005C02F3F19F00196A11DB11D3FBFBA2FAE
:100D0000A92F982F8827820F911DA11DB11D42E0A8
:100D1000880F991FAA1FBB1F4A95D1F740913F0228
:100D20005091400260914102709142022C013D01BC
:100D3000441A550A660A770A40912B0250912C02F8
:100D400060912D0270912E024416550666067706B4
:100D500008F4BFCF80933F0290934002A0934102DA
:100D6000B093420280913302909134022091290283
:100D700030912A022130310519F501969093340201
:100D80008093330220912F02309130028217930713
:100D900021F4109234021092330221978091330291
:100DA000909134022091310230913202B501253008
:100DB000310509F0B6010E9400070E94FF0189CFAA
:100DC000892B41F480912F0290913002909334024C
:100DD0008093330280913302909134020197909373
:100DE000340280933302D9CFE114F10409F46BCFBC
:100DF0000E947201882309F466CF0E94000063CF2D
:100E000097FB072E16F4009407D077FD09D00E94B7
:100E1000390707FC05D03EF4909581959F4F0895C2
:100E2000709561957F4F0895052E97FB1EF40094F1
:100E30000E942B0757FD07D00E944D0707FC03D0E7
:100E40004EF40C942B0750954095309521953F4FCB
:100E50004F4F5F4F089590958095709561957F4FA6
:100E60008F4F9F4F0895EE0FFF1F0590F491E02DD7
:100E70000994AA1BBB1B51E107C0AA1FBB1FA617E1
:100E8000B70710F0A61BB70B881F991F5A95A9F733
:100E900080959095BC01CD010895A1E21A2EAA1B60
:100EA000BB1BFD010DC0AA1FBB1FEE1FFF1FA2171A
:100EB000B307E407F50720F0A21BB30BE40BF50B17
:100EC000661F771F881F991F1A9469F760957095A0
:100ED000809590959B01AC01BD01CF010895F894D8
:100EE000FFCF0000000005018601A6005201D700D7
:040EF000B500C90080
:107E0000112484B714BE81FFF0D085E080938100F7
:107E100082E08093C00088E18093C10086E0809377
:107E2000C20080E18093C4008EE0C9D0259A86E02C
:107E300020E33CEF91E0309385002093840096BBD3
:107E4000B09BFECF1D9AA8958150A9F7CC24DD24C4
:107E500088248394B5E0AB2EA1E19A2EF3E0BF2EE7
:107E6000A2D0813461F49FD0082FAFD0023811F036
:107E7000013811F484E001C083E08DD089C08234E0
:107E800011F484E103C0853419F485E0A6D080C0E4
:107E9000853579F488D0E82EFF2485D0082F10E0AE
:107EA000102F00270E291F29000F111F8ED06801E7
:107EB0006FC0863521F484E090D080E0DECF843638
:107EC00009F040C070D06FD0082F6DD080E0C81688
:107ED00080E7D80618F4F601B7BEE895C0E0D1E017
:107EE00062D089930C17E1F7F0E0CF16F0E7DF06D8
:107EF00018F0F601B7BEE89568D007B600FCFDCFD4
:107F0000A601A0E0B1E02C9130E011968C91119780
:107F100090E0982F8827822B932B1296FA010C0160
:107F200087BEE89511244E5F5F4FF1E0A038BF0790
:107F300051F7F601A7BEE89507B600FCFDCF97BE46
:107F4000E89526C08437B1F42ED02DD0F82E2BD052
:107F50003CD0F601EF2C8F010F5F1F4F84911BD097
:107F6000EA94F801C1F70894C11CD11CFA94CF0C13
:107F7000D11C0EC0853739F428D08EE10CD085E9AC
:107F80000AD08FE07ACF813511F488E018D01DD067
:107F900080E101D065CF982F8091C00085FFFCCF94
:107FA0009093C60008958091C00087FFFCCF809118
:107FB000C00084FD01C0A8958091C6000895E0E648
:107FC000F0E098E1908380830895EDDF803219F02E
:107FD00088E0F5DFFFCF84E1DECF1F93182FE3DFCA
:107FE0001150E9F7F2DF1F91089580E0E8DFEE27F6
:047FF000FF270994CA
:027FFE00040479
:00000001FF
